:020000040000FA
:100000000C94D6000C94FE000C94FE000C94FE00A0
:100010000C94FE000C94FE000C94FE000C94FE0068
:100020000C94FE000C94FE000C94FE000C94FE0058
:100030000C94FE000C94FE000C94FE000C94FE0048
:100040000C9482040C94FE000C9450040C942A042A
:100050000C94EB050C94FE000C94FE000C94FE0036
:100060000C94CC040C94FE0000407A10F35A00A0CB
:10007000724E18090010A5D4E80000E87648170071
:1000800000E40B54020000CA9A3B000000E1F505B1
:10009000000080969800000040420F000000A086FB
:1000A00001000000102700000000E803000000002D
:1000B0006400000000000A000000000001000000D1
:1000C00000002C76D888DC674F0823DFC1DFAE59EB
:1000D000E1B1B796E5E3E453C63AE651997696E87E
:1000E000E6C28426EB898C9B62ED407C6FFCEFBC02
:1000F0009C9F40F2BAA56FA5F490055A2AF75C932D
:100100006B6CF9676DC11BFCE0E40D47FEF520E662
:10011000B500D0ED902E0300943577050080841E45
:10012000080000204E0A000000C80C333333330FA0
:10013000986E12831141EF8D2114893BE65516CF3D
:10014000FEE6DB18D1844B381BF77C1D901DA4BB49
:10015000E424203284725E228100C9F124ECA1E5FE
:100160003D2700000000250028002B0004040404A3
:100170000404040402020202020203030303030351
:10018000010204081020408001020408102001022E
:10019000040810200000000800020100000304070A
:1001A0000000000000000000F605C40A11241FBE74
:1001B000CFEFD8E0DEBFCDBF22E0ACE3B1E001C0BD
:1001C0001D92A73BB207E1F711E0A0E0B1E0ECEB34
:1001D000FEE102C005900D92AC33B107D9F710E0F3
:1001E000C5EDD0E004C02197FE010E94590DC43D29
:1001F000D107C9F70E946E060C94510F0C940000B1
:100200002091B1023091B2028217930738F4209105
:10021000AD023091AE022115310529F4109203028E
:1002200083E092E00895820F931F089508958091CE
:100230008D0190918E01891B990B08950895089561
:10024000AF92BF92CF92DF92EF92FF920F931F93E4
:10025000CF93DF936C017B018B01040F151FEB0122
:100260005E01AE18BF08C017D10759F06991D601D9
:10027000ED91FC910190F081E02DC6010995892B4B
:1002800079F7C501DF91CF911F910F91FF90EF900A
:10029000DF90CF90BF90AF900895FC01538D448DB7
:1002A000252F30E0842F90E0821B930B541710F021
:1002B000CF96089501970895FC01918D828D98172E
:1002C00061F0A28DAE0FBF2FB11D5D968C91928D06
:1002D0009F5F9F73928F90E008958FEF9FEF089537
:1002E000FC01918D828D981731F0828DE80FF11D00
:1002F000858D90E008958FEF9FEF0895FC01918D1B
:10030000228D892F90E0805C9F4F821B91098F7313
:100310009927089584E092E00E947E0121E0892BD4
:1003200009F420E0822F089580E090E0892B29F0E5
:100330000E948A0181110C9400000895FC01A48D93
:10034000A80FB92FB11DA35ABF4F2C91848D90E0F7
:1003500001968F739927848FA689B7892C93A089DA
:10036000B1898C91837080648C93938D848D981364
:1003700006C00288F389E02D80818F7D80830895F7
:10038000EF92FF920F931F93CF93DF93EC0181E0E5
:10039000888F9B8D8C8D98131AC0E889F98980818C
:1003A00085FF15C09FB7F894EE89FF896083E889BF
:1003B000F98980818370806480839FBF81E090E0B1
:1003C000DF91CF911F910F91FF90EF900895F62E3E
:1003D0000B8D10E00F5F1F4F0F731127E02E8C8DD8
:1003E0008E110CC00FB607FCFACFE889F98980811D
:1003F00085FFF5CFCE010E949E01F1CFEB8DEC0F72
:10040000FD2FF11DE35AFF4FF0829FB7F8940B8F39
:10041000EA89FB8980818062CFCFCF93DF93EC01A3
:10042000888D8823B9F0AA89BB89E889F9898C91DC
:1004300085FD03C0808186FD0DC00FB607FCF7CF98
:100440008C9185FFF2CF808185FFEDCFCE010E9498
:100450009E01E9CFDF91CF91089590E0FC01EC5629
:10046000FE4F2491FC01E058FE4F3491FC01E45909
:10047000FE4FE491EE23C9F0222339F0233001F13D
:10048000A8F4213019F1223029F1F0E0EE0FFF1F1E
:10049000EE59FE4FA591B4918FB7F894EC9161118C
:1004A00026C030953E233C938FBF08952730A9F096
:1004B0002830C9F0243049F7809180008F7D03C037
:1004C000809180008F7780938000DFCF84B58F7715
:1004D00084BDDBCF84B58F7DFBCF8091B0008F775B
:1004E0008093B000D2CF8091B0008F7DF9CF3E2BAA
:1004F000DACF3FB7F8948091850190918601A09161
:100500008701B091880126B5A89B05C02F3F19F03F
:100510000196A11DB11D3FBFBA2FA92F982F882783
:10052000BC01CD01620F711D811D911D42E0660F5E
:10053000771F881F991F4A95D1F708958F929F9230
:10054000AF92BF92CF92DF92EF92FF924B015C018C
:100550000E9479026B017C010E9479026C197D096D
:100560008E099F09683E734081059105A8F321E03B
:10057000821A9108A108B10888EEC80E83E0D81E3F
:10058000E11CF11C81149104A104B10429F7FF902E
:10059000EF90DF90CF90BF90AF909F908F90089595
:1005A00020915D01260F3327331F21323105ECF4F2
:1005B0002091D501FC0190E080E0243069F082E0D8
:1005C0000895A0915D012191AC01435C5E4FA40FA1
:1005D000B52FB11D2C930196861798F380915D017C
:1005E000680F60935D0180E0089581E008951092A6
:1005F000D50181E08093D4011092AF0161E082E1E6
:100600000E942D0261E083E10E942D02E9EBF0E0FF
:1006100080818E7F808380818D7F808388E480933A
:10062000B80085E48093BC000895CF93DF9391E0F8
:1006300090933C018823B9F0C091B800D091BA00E2
:100640008091BC008A7B8093BC0060E082E10E94C4
:100650002D0260E083E10E942D020E94F702D093F8
:10066000BA00C093B800DF91CF9108950895E0914A
:100670008E0180918D01E81730F4F0E0E157FE4FD4
:10068000808190E008958FEF9FEF089590918E0103
:1006900080918D012FEF3FEF981748F4E92FF0E09C
:1006A000E157FE4F208130E09F5F90938E01C9019A
:1006B0000895CF92DF92EF92FF920F931F93CF9303
:1006C000DF937C01CB018A012091FE01222389F076
:1006D000EB016B01C40ED51ECC15DD0569F06991E7
:1006E000D701ED91FC910190F081E02DC7010995B2
:1006F000F3CF642F0E94D002C801DF91CF911F91E8
:100700000F91FF90EF90DF90CF900895CF93DF93FC
:100710001F92CDB7DEB769832091FE012223F9F045
:100720002091FB01203258F021E030E0FC013383BE
:10073000228390E080E00F90DF91CF910895809127
:10074000FC01E82FF0E0E552FE4F998190838F5F26
:100750008093FC018093FB0181E090E0ECCF61E0AD
:10076000CE0101960E94D002F7CF90E080E008957C
:10077000CF93DF93EC0188819981009711F00E945B
:10078000FB0D198218821D821C821B821A82DF9146
:10079000CF9108950F931F93CF93DF93EC0188813E
:1007A0009981009759F02A813B812617370730F04D
:1007B00081E0DF91CF911F910F9108958B016F5FC1
:1007C0007F4F0E94840E009759F0998388831B8382
:1007D0000A832C813D81232B59F7FC011082E8CF3D
:1007E00080E0E7CF85ED8093BC008091D7019091A8
:1007F000D801A091D901B091DA010796A11DB11DD0
:1008000023E0B695A795979587952A95D1F72091DE
:10081000BC0024FD03C01092D50108954091D7017A
:100820005091D8016091D9017091DA01452B462B86
:10083000472B69F30097A105B10541F025E32A95FF
:10084000F1F700000197A109B109E1CF8091D6012C
:100850000C9415031F920F920FB60F9211242F9331
:100860003F934F935F936F937F938F939F93AF9338
:10087000BF93EF93FF9384E092E00E949E01FF916B
:10088000EF91BF91AF919F918F917F916F915F9108
:100890004F913F912F910F900FBE0F901F90189581
:1008A0001F920F920FB60F9211242F938F939F9345
:1008B000EF93FF93E0911402F09115028081E09193
:1008C0001A02F0911B0282FD1BC0908180911D02D3
:1008D0008F5F8F7320911E02821741F0E0911D02FD
:1008E000F0E0EC5FFD4F958F80931D02FF91EF913B
:1008F0009F918F912F910F900FBE0F901F90189581
:100900008081F4CF1F920F920FB60F9211242F9374
:100910003F938F939F93AF93BF9380918101909169
:100920008201A0918301B09184013091800123E084
:10093000230F2D3758F50196A11DB11D209380017D
:100940008093810190938201A0938301B0938401ED
:100950008091850190918601A0918701B0918801D5
:100960000196A11DB11D8093850190938601A093EE
:100970008701B0938801BF91AF919F918F913F9173
:100980002F910F900FBE0F901F90189526E8230F00
:100990000296A11DB11DD2CF1F920F920FB60F92DA
:1009A00011242F933F934F935F936F937F938F9374
:1009B0009F93AF93BF93EF93FF938091B900887F8C
:1009C000803609F44AC0F0F5883209F4A7C018F55A
:1009D000803109F49BC0B8F4882309F4F9C0883049
:1009E00009F494C0FF91EF91BF91AF919F918F91C6
:1009F0007F916F915F914F913F912F910F900FBE1B
:100A00000F901F901895883109F488C0803251F7F3
:100A10008093D30114C0803409F49DC040F4803326
:100A2000B9F38833F9F68093D30185ECB0C08035F3
:100A300009F485C0883509F496C0883499F60E9477
:100A4000F203D0CF883909F48CC038F5883729F003
:100A500050F4883611F0803729F683E08093D50171
:100A600010927F0157C0883809F47BC0803919F093
:100A7000803809F0B7CF80917F01803208F071C0D3
:100A8000E0917F0181E08E0F80937F018091BB0018
:100A9000F0E0E15AFE4F80833DC0803B39F0E0F446
:100AA000803A09F479C0883A09F09CCF84E08093B9
:100AB000D50110925E0110925D01E0918B01F091E1
:100AC0008C01099580915D0181110FC081E08093B7
:100AD0005D0110923D0109C0803C09F4A6CF883C1D
:100AE00009F4A3CF883B09F07DCFE0915E0181E05E
:100AF0008E0F80935E01F0E0E35CFE4F8081809377
:100B0000BB0090915E0180915D0129C08091B00190
:100B10008093BB0085EC8093BC0064CF9091D201A0
:100B20008091D101981758F5E091D20181E08E0FA4
:100B30008093D201F0E0EF54FE4F8081E9CFE09145
:100B4000D20181E08E0F8093D2018091BB00F0E052
:100B5000EF54FE4F80839091D2018091D10198177C
:100B6000C8F285E8D8CFE091D20181E08E0F809362
:100B7000D2018091BB00F0E0EF54FE4F8083809162
:100B8000D40181115CCF81E08093AF0184EA80932E
:100B9000BC001092D50126CF85EC8093BC0010924A
:100BA000D50180917F01803230F4E0917F01F0E047
:100BB000E15AFE4F108260917F0170E0E09189015F
:100BC000F0918A018FE591E0099510927F010ACF9B
:100BD0001092D30134CF1F920F920FB60F921124AF
:100BE0005A980F900FBE0F901F9018951092070201
:100BF0001092060288EE93E0A0E0B0E08093080235
:100C000090930902A0930A02B0930B022BE131E00A
:100C1000309305022093040225EC30E0309311025A
:100C20002093100224EC30E0309313022093120240
:100C300020EC30E0309315022093140221EC30E0D8
:100C4000309317022093160222EC30E03093190201
:100C50002093180226EC30E030931B0220931A02F6
:100C600010921D0210921E0210921F02109220027A
:100C70001092A4021092A3028093A5029093A60260
:100C8000A093A702B093A8028DE291E09093A202F4
:100C90008093A1021092AE021092AD021092B002A7
:100CA0001092AF021092B2021092B10270E060E0B6
:100CB0008DEA92E00E94CA03811104C08DEA92E09D
:100CC0000C94B8031092B2021092B1026BE371E07F
:100CD0008091AD029091AE020C944A0FCF93DF93B6
:100CE000CDB7DEB7A9970FB6F894DEBF0FBECDBF64
:100CF000789484B5826084BD84B5816084BD85B5F7
:100D0000826085BD85B5816085BD80916E00816002
:100D100080936E00109281008091810082608093A8
:100D200081008091810081608093810080918000AA
:100D30008160809380008091B10084608093B100D5
:100D40008091B00081608093B00080917A008460CF
:100D500080937A0080917A00826080937A008091FB
:100D60007A00816080937A0080917A008068809315
:100D70007A001092C10068EE73E080E090E00E947B
:100D80009E0210928E0110928D011092FC01109221
:100D9000FB010E94F7028EE191E090938C01809319
:100DA0008B018FE191E090938A018093890187E024
:100DB0008AB988EF8BB9E0911402F091150282E0B4
:100DC0008083E0911002F09111021082E0911202F2
:100DD000F09113028FEC808310921C02E0911802B4
:100DE000F091190286E08083E0911602F0911702DB
:100DF000808180618083E0911602F09117028081EA
:100E000088608083E0911602F091170280818068EB
:100E10008083E0911602F091170280818F7D80839C
:100E20008091C10084648093C1008091C000816082
:100E30008093C00061E070E080E090E00E949E023C
:100E40008BE78093020244244394512C8FE0282E98
:100E5000312C84E092E00E947E01892BB1F084E085
:100E600092E00E945C01909100019923C9F0909159
:100E7000020298130AC01092000181E080930102DF
:100E80008091C0008E7F8093C00020E030E0232B53
:100E900001F30E948A018823E1F20E940000D9CF69
:100EA00080910102882389F3109201028091FF0151
:100EB00090910002039721F4109200021092FF011A
:100EC00081E0809300015A9A61E070E080E090E058
:100ED0000E949E02E091FF01F0910002EE0FFF1FC1
:100EE000EE0FFF1FE95FFE4F608171818281938168
:100EF0006DB67EB61BA21AA21DA21CA21FA21EA224
:100F00008E010F5F1F4F22E044E00E94CD0A7C015A
:100F1000009779F0FC0101900020E9F731978F01EB
:100F2000081B190BB801CE0182960E94CA038111D9
:100F3000C4C0CE0182960E94B8038091AD02909108
:100F4000AE02009709F4C3C06AA17BA161157105C7
:100F500009F4BBC04091AF025091B0022EA13FA155
:100F60004217530708F4B1C00E944A0F8EA19FA1F7
:100F70009093B2028093B1021FA21EA28AA19BA1EC
:100F8000009711F00E94FB0D8091B1029091B20286
:100F90009C012F5F3F4F02964DB75EB7481B590B20
:100FA0000FB6F8945EBF0FBE4DBF6DB77EB76F5FD3
:100FB0007F4F6B01FB0137FFA1C08601BB24B394B7
:100FC000F2E0AF2EA3E09A2EB4E08B2E8091B10216
:100FD0009091B2027801EC18FD08E816F90608F0C5
:100FE00091C0C7010E940001DC018C91803311F493
:100FF000F8011082C7010E940001DC018C9181334D
:1010000011F4F801B082C7010E940001DC018C914B
:10101000823311F4F801A082C7010E940001DC01B3
:101020008C91833311F4F8019082C7010E94000172
:10103000DC018C91843311F4F8018082C7010E9495
:101040000001DC018C91853319F425E0F80120833F
:10105000C7010E940001DC018C91863319F426E05F
:10106000F8012083C7010E940001DC018C918733C5
:1010700019F427E0F8012083C7010E940001DC0178
:101080008C91883319F428E0F8012083C7010E946D
:101090000001DC018C91893319F429E0F8012083E7
:1010A000C7010E940001DC018C918E3219F42FEFF0
:1010B000F80120830F5F1F4F89CF1FA30EA3B70135
:1010C0008AA19BA10E944A0F38CF0E94FB0D8AA1E2
:1010D0009BA19093AE028093AD028CA19DA19093B1
:1010E000B0028093AF028EA19FA19093B202809331
:1010F000B1021BA21AA21DA21CA23ECF1192215026
:10110000310959CF4DB75EB7481B590B0FB6F8944C
:101110005EBF0FBE4DBF2DB73EB72F5F3F4F39A704
:1011200028A74901880E991E7601D901A815B9058D
:1011300029F1F701A1907F0170E060E050E040E00C
:10114000B12C8501042E02C0159507950A94E2F78B
:1011500000FF0DC007E010E0041B150BF20102C0F8
:10116000EE0FFF1F0A95E2F78F016E2B712B4F5F79
:101170005F4F4830510529F76D93D8CFD6011596AA
:101180001C92159716961C922B5F3F4F50E040E043
:10119000E8A5F9A56191F9A7E8A7562768E070E0EE
:1011A000DA01440F551FB7FF04C0F9E84F27F5E0F7
:1011B0005F2761507109A1F768A579A52617370740
:1011C00039F770E060E030E020E0F201022E02C06A
:1011D000EE0FFF1F0A94E2F7E423F523EF2B61F0F3
:1011E000F101E21BF30BD20102C0AA0FBB1FEA956B
:1011F000E2F7FD016A2B7F2B2F5F3F4F2031310536
:1012000021F7F601E80FF91F708361838601809151
:10121000B1029091B202029698012C193D0928174B
:10122000390740F4F80161918F0184E092E00E9457
:10123000C001EDCF0FB6F8947EBE0FBE6DBE80919B
:10124000FF01909100020196909300028093FF01AC
:1012500081E08093FE0180E48093FD011092FC0107
:101260001092FB0165EF81EA92E00E9486031091E3
:10127000FB01113208F091C00E9479026B017C01E0
:101280008091D501811164C082E08093D50181E015
:101290008093D4018FEF8093D3011092D2011093E9
:1012A000D101ABEDB1E0E1EBF1E080E01813E8C073
:1012B0001092B0018091B00180688093B00180915C
:1012C000AF01813009F0E0C01092AF010E947902B5
:1012D0006B017C018091B0018093BB008091D701AC
:1012E0009091D801A091D901B091DA01892B8A2B74
:1012F0008B2B99F00E9479020091D7011091D801AF
:101300002091D9013091DA016C197D098E099F096C
:101310000617170728073907E0F18091BC0083FD05
:10132000D9CF85EC8093BC000E9479026B017C01CF
:101330008091D501823009F4A9C08091D3018F3FFB
:1013400061F18091D301803241F18091D30125C0B8
:101350008091D7019091D801A091D901B091DA0183
:10136000892B8A2B8B2B09F48BCF0E9479028090DA
:10137000D7019090D801A090D901B090DA016C19F2
:101380007D098E099F0986169706A806B90608F0FA
:1013900077CF8091D6010E9415031092FC01109224
:1013A000FB011092FE010E9479026B017C01809189
:1013B000D50181118DC081E08093D5018093D40146
:1013C0009FEF9093D3011092D2018093D10180932B
:1013D000B0018091B00180688093B0018091AF012D
:1013E000813009F0ABC01092AF010E9479026B010D
:1013F0007C018091B0018093BB008091D7019091D6
:10140000D801A091D901B091DA01892B8A2B8B2BBD
:10141000A1F00E9479020091D7011091D80120918A
:10142000D9013091DA016C197D098E099F090617DF
:1014300017072807390708F46CC08091BC0083FDAA
:10144000D8CF85EC8093BC000E9479026B017C01AF
:101450008091D501813009F473C08091D20182302E
:1014600008F090C08091D201A1EBB1E0EFE8F1E08B
:1014700090E0981709F452C02D9121939F5FF9CF06
:101480009D9191938F5F12CF85EE4CCF8091D701C4
:101490009091D801A091D901B091DA01892B8A2BC2
:1014A0008B2B09F445CF0E9479020091D70110914E
:1014B000D8012091D9013091DA016C197D098E098A
:1014C0009F09061717072807390708F031CF61CFA2
:1014D0008091D7019091D801A091D901B091DA0102
:1014E000892B8A2B8B2B09F462CF0E947902009101
:1014F000D7011091D8012091D9013091DA016C19EE
:101500007D098E099F09061717072807390708F074
:101510004ECF8091D6010E94150380E010928E017B
:1015200080938D01823009F0B0CC81EA92E00E9474
:10153000460381EA92E00E944603A7CC85EE82CF63
:101540008091D7019091D801A091D901B091DA0191
:10155000892B8A2B8B2B09F47BCF0E947902009177
:10156000D7011091D8012091D9013091DA016C197D
:101570007D098E099F09061717072807390708F004
:1015800067CFC7CF82E070CF8091AD029091AE025D
:10159000009711F00C94FB0D0895EF920F931F9399
:1015A000CF93DF93E80134E047FD34E1042E000CD3
:1015B000550B57FF03C0519541955109E32E022F5A
:1015C000242FAE010E94EB0ACE01DF91CF911F9133
:1015D0000F91EF900895A9E0B0E0E1EFFAE00C94EC
:1015E000280D6A01F22EB02E102FFBE3AF2EA016AD
:1015F00008F41BE31F5F012F27E0AE014F5F5F4F31
:101600000E944A0CBC018981982F9970913009F48D
:101610003FC09BE2E1FC04C09E2D9170E0FC3AC00B
:101620005E2D5071E82FE87083FF46C084E0911171
:1016300001C083E0EF2DE81B8F1508F0E0E0D60134
:101640008E2F20E2552351F1992329F0D6019C9346
:10165000C60101966C0196012D5F3F4FE2FE24C04A
:101660008EE4D6018C9391E411969C931197129677
:101670008C93D9018E2F90E281111BC0E20FF32FC2
:10168000F11D10828EEF9FEF2996ECE00C94440D33
:101690009DE2C6CF90E2C4CF2D9381508111FCCF43
:1016A000CE0ED11CE0E0D0CF8EE6D6018C9391E631
:1016B000DBCF9D938150E0CF482F447082FF3DC027
:1016C00084E0911101C083E08F1510F4EF2DE81B29
:1016D000D6018E2F20E2552309F1992329F0D60156
:1016E0009C93C60101966C0196012D5F3F4FE2FE6F
:1016F0001BC089E4D6018C938EE411968C931197CC
:1017000086E412968C93D9018E2F90E2882309F4F7
:10171000B5CF9D938150FACF2D9381508111FCCF8D
:10172000CE0ED11CE0E0D9CF89E6D6018C938EE6AF
:1017300011968C93119786E6E4CF9B0177FF02C048
:1017400030E020E0A1E0B0E0911102C0B0E0A0E004
:10175000F9013196AE0FBF1F8B2C912CBB2009F4E1
:1017600061C05401EFEFAE1ABE0AAA0DBB1DFA16F6
:101770001B0619F014F04F2D4A1B511188C0E3FCD1
:1017800059C07601A42FB0E2A1114FC0C40ED11CE4
:10179000992309F45BC040E0D6011196F6019083CD
:1017A0006D01552309F448C0012F060F9A81582F67
:1017B000507184FF03C0913309F4015010160CF0EE
:1017C00047C0093008F008E0EEE2FE2E5B01A01AE7
:1017D000B10885019194819491082F3F320729F433
:1017E000D601FC92F60131966F016217730794F1EE
:1017F000021713077CF5DB01A21BB30BAA24A394E9
:10180000B12CAC0EBD1EAA0DBB1D11968C912150A2
:101810003109D601119628153905F4F0F6018083B7
:101820006D01DBCFB12CA12CA0CFF701B1937F01CB
:10183000A150AACF9111B0CFD601942F50E302C08E
:101840005D9391509111FCCFC40ED11C40E0ACCF00
:1018500001E0BACF80E3DBCF6217730731F4963330
:1018600088F4953311F4552369F0F6018083FD0166
:10187000842F90E2811108C0A40FB11D1C9290E04A
:1018800080E002CF81E3F1CF91938150F3CF9111AA
:1018900083CF8ACF283008F027E03327DA01990F69
:1018A000311D87FD916000966105710539F4326044
:1018B0002E5F3D9330E32A95E1F708959F3F30F086
:1018C00080387105610509F03C5F3C5F3D939130C4
:1018D00008F08068911DDF93CF931F930F93FF92C1
:1018E000EF92192F987F9695E92F96959695E90F87
:1018F000FF27EE53FF4F99273327EE24FF24A7013C
:10190000E70105900894079428F4360FE71EF81EA7
:10191000491F511D660F771F881F991F0694A1F755
:101920000590079428F4E70EF81E491F561FC11DA5
:10193000770F881F991F661F0694A1F705900794DB
:1019400028F4F80E491F561FC71FD11D880F991F75
:10195000661F771F0694A1F70590079420F4490F9E
:10196000561FC71FD81F990F661F771F881F069421
:10197000A9F784911095177041F0D695C7955795A2
:101980004795F794E7941A95C1F7E8E6F0E0689474
:101990001590159135916591959105907FE273951C
:1019A000E118F10A430B560BC90BD009C0F7E10C43
:1019B000F11E431F561FC91FD01D7EF4703311F452
:1019C0008A95E6CFE894015030F0080F0AF400271A
:1019D000021708F4202F2395022F7A3328F079E399
:1019E0007D932A95E9F710C07D932A9589F6069490
:1019F00097956795379517951794E118F10A430B5A
:101A0000560BC90BD00998F023957E9173957A33C4
:101A100008F070E37C932013B8F77E9170617D939A
:101A200030F0839571E37D9370E32A95E1F71124FB
:101A3000EF90FF900F911F91CF91DF91992787FD34
:101A4000909508952F923F924F925F926F927F925E
:101A50008F929F92AF92BF92CF92DF92EF92FF92BE
:101A60000F931F93CF93DF93CDB7DEB7CA1BDB0B6A
:101A70000FB6F894DEBF0FBECDBF09942A8839880F
:101A800048885F846E847D848C849B84AA84B98416
:101A9000C884DF80EE80FD800C811B81AA81B98122
:101AA000CE0FD11D0FB6F894DEBF0FBECDBFED0136
:101AB0000895EE0FFF1F0590F491E02D09940F9308
:101AC0001F93CF93DF938230910510F482E090E072
:101AD000E091B502F091B60230E020E0B0E0A0E085
:101AE000309799F42115310509F44AC0281B390BA8
:101AF00024303105D8F58A819B816115710589F102
:101B0000FB0193838283FE0111C0408151810281D8
:101B1000138148175907E0F04817590799F41097AF
:101B200061F012960C93129713961C933296CF0184
:101B3000DF91CF911F910F9108950093B5021093FB
:101B4000B602F4CF2115310551F04217530738F092
:101B5000A901DB019A01BD01DF01F801C1CFEF014D
:101B6000F9CF9093B6028093B502CDCFFE01E20F7C
:101B7000F31F819391932250310939832883D7CF62
:101B80002091B3023091B402232B41F42091030140
:101B9000309104013093B4022093B30220910101EB
:101BA000309102012115310541F42DB73EB7409126
:101BB000050150910601241B350BE091B302F09111
:101BC000B402E217F307A0F42E1B3F0B28173907C6
:101BD00078F0AC014E5F5F4F2417350748F04E0F89
:101BE0005F1F5093B4024093B302819391939FCFB0
:101BF000F0E0E0E09CCFCF93DF930097E9F0FC01A9
:101C0000329713821282A091B502B091B602ED0113
:101C100030E020E01097A1F420813181820F931FE2
:101C20002091B3023091B4022817390709F061C03E
:101C3000F093B402E093B302DF91CF910895EA01EB
:101C4000CE17DF07E8F54A815B819E0141155105FA
:101C5000B1F7E901FB83EA8349915991C40FD51F7C
:101C6000EC17FD0761F4808191810296840F951F26
:101C7000E90199838883828193819B838A83F0E041
:101C8000E0E012968D919C9113970097B9F52D91F4
:101C90003C911197CD010296820F931F2091B302C0
:101CA0003091B4022817390739F6309751F5109260
:101CB000B6021092B502B093B402A093B302BCCFA7
:101CC000D383C28340815181840F951FC817D907E0
:101CD00061F44E5F5F4F88819981480F591F51838E
:101CE00040838A819B81938382832115310509F08A
:101CF000B0CFF093B602E093B5029ECFFD01DC01B8
:101D0000C0CF13821282D7CFB0E0A0E0EAE8FEE0B5
:101D10000C94240D8C01009751F4CB010E945F0DAF
:101D20008C01C801CDB7DEB7E0E10C94400DFC0199
:101D3000E60FF71F9C0122503109E217F30708F460
:101D40009DC0D901CD91DC911197C617D70798F0A6
:101D5000C530D10530F3CE0104978617970708F3F5
:101D6000C61BD70B2297C193D1936D937C93CF0160
:101D70000E94FB0DD6CF5B01AC1ABD0A4C018C0E44
:101D80009D1EA091B502B091B602512C412CF12CB0
:101D9000E12C109731F58091B3029091B40288152F
:101DA000990509F05CC04616570608F058C08091A6
:101DB000010190910201009741F48DB79EB74091C7
:101DC000050150910601841B950BE817F90708F0EF
:101DD00055C0F093B402E093B302F90171836083BC
:101DE000A0CF8D919C91119712966C90129713969B
:101DF0007C901397A815B90559F56C0142E0C40E03
:101E0000D11CCA14DB0420F1AC014A195B09DA01C8
:101E10001296159780F06282738251834083D901B4
:101E20006D937C93E114F10471F0D7011396FC9348
:101E3000EE93129776CF22968C0F9D1FF901918316
:101E40008083F301EFCFF093B602E093B50269CF40
:101E50004816590608F42C017D01D3019ACFCB0115
:101E60000E945F0D7C01009749F0AE01B8010E940D
:101E7000410FC8010E94FB0D870153CF10E000E025
:101E800050CFFB01DC0102C001900D924150504047
:101E9000D8F70895FB01DC0101900D920020E1F7D5
:101EA000089510E0C5EDD0E004C0FE010E94590D78
:101EB0002196C63DD107C9F7F894FFCF010000B7BE
:101EC0000280000000C8410000E84100000042001C
:101ED00000F04100000000C00120014D010D027E14
:101EE000015C0170010000000086035903B5033650
:081EF00003170146033703004C
:107E0000112484B714BE81FFF0D085E080938100F7
:107E100082E08093C00088E18093C10086E0809377
:107E2000C20080E18093C4008EE0C9D0259A86E02C
:107E300020E33CEF91E0309385002093840096BBD3
:107E4000B09BFECF1D9AA8958150A9F7CC24DD24C4
:107E500088248394B5E0AB2EA1E19A2EF3E0BF2EE7
:107E6000A2D0813461F49FD0082FAFD0023811F036
:107E7000013811F484E001C083E08DD089C08234E0
:107E800011F484E103C0853419F485E0A6D080C0E4
:107E9000853579F488D0E82EFF2485D0082F10E0AE
:107EA000102F00270E291F29000F111F8ED06801E7
:107EB0006FC0863521F484E090D080E0DECF843638
:107EC00009F040C070D06FD0082F6DD080E0C81688
:107ED00080E7D80618F4F601B7BEE895C0E0D1E017
:107EE00062D089930C17E1F7F0E0CF16F0E7DF06D8
:107EF00018F0F601B7BEE89568D007B600FCFDCFD4
:107F0000A601A0E0B1E02C9130E011968C91119780
:107F100090E0982F8827822B932B1296FA010C0160
:107F200087BEE89511244E5F5F4FF1E0A038BF0790
:107F300051F7F601A7BEE89507B600FCFDCF97BE46
:107F4000E89526C08437B1F42ED02DD0F82E2BD052
:107F50003CD0F601EF2C8F010F5F1F4F84911BD097
:107F6000EA94F801C1F70894C11CD11CFA94CF0C13
:107F7000D11C0EC0853739F428D08EE10CD085E9AC
:107F80000AD08FE07ACF813511F488E018D01DD067
:107F900080E101D065CF982F8091C00085FFFCCF94
:107FA0009093C60008958091C00087FFFCCF809118
:107FB000C00084FD01C0A8958091C6000895E0E648
:107FC000F0E098E1908380830895EDDF803219F02E
:107FD00088E0F5DFFFCF84E1DECF1F93182FE3DFCA
:107FE0001150E9F7F2DF1F91089580E0E8DFEE27F6
:047FF000FF270994CA
:027FFE00040479
:00000001FF
