:100000000C94AD010C94DE010C94DE010C94DE0125
:100010000C94DE010C94DE010C94DE010C94DE01E4
:100020000C94DE010C94DE010C94DE010C94DE01D4
:100030000C94DE010C94DE010C94DE010C94DE01C4
:100040000C94DE010C94DE010C94DE010C94DE01B4
:100050000C94DE010C94DE010C94DE010C94D105AD
:100060000C94DE010C949B050C9471050C94DE013C
:100070000C94DE010C94DE010C94DE010C94DE0184
:100080000C94DE010C94DE010C94DE010C94DE0174
:100090000C94DE010C94DE010C94DE010C941B0622
:1000A0000C94DE010C94DE010C94DE010C94DE0154
:1000B0000C94DE010C94DE010C94DE010C94DE0144
:1000C0000C94DE010C94DE010C94DE010C94DE0134
:1000D0000C94DE010C94DE010C94DE010C94DE0124
:1000E0000C94DE010C947D040C94A8030C94690319
:1000F0000C947E040C94F7010C94380C0C94FE01C3
:100100000C94B6030C9496020C945E020C9490032B
:100110000C94CD040C94E3020C94B0030C9464038F
:100120000C947B030C947F030C94A2030C94BA03ED
:100130000C948A030C942D020C949A030C94830360
:100140000C944A070C94A0040C9487030C94FF01B0
:100150000C9494030C94FC040C948D040C945002A5
:100160000C94AC030C9400020C949E030C943C027F
:1001700000407A10F35A00A0724E18090010A5D45E
:10018000E80000E87648170000E40B54020000CABB
:100190009A3B000000E1F505000080969800000001
:1001A00040420F000000A086010000001027000060
:1001B0000000E803000000006400000000000A00E6
:1001C000000000000100000000002C76D888DC67E9
:1001D0004F0823DFC1DFAE59E1B1B796E5E3E45341
:1001E000C63AE651997696E8E6C28426EB898C9B5E
:1001F00062ED407C6FFCEFBC9C9F40F2BAA56FA5FE
:10020000F490055A2AF75C936B6CF9676DC11BFC7F
:10021000E0E40D47FEF520E6B500D0ED902E03009A
:10022000943577050080841E080000204E0A0000E7
:1002300000C80C333333330F986E12831141EF8DA6
:100240002114893BE65516CFFEE6DB18D1844B38E6
:100250001BF77C1D901DA4BBE424203284725E2217
:100260008100C9F124ECA1E53D2700002200250012
:1002700028002B002E00310034000201000005018F
:1002800008010B0105050505070508080808020215
:1002900002020A0A08080404040401010101010120
:1002A00001010303030303030303040707070C0C03
:1002B0000C0C0C0C0C0C02020202060606060606CA
:1002C00006060B0B0B0B0B0B0B0B0102102020086F
:1002D00008102040102040800201020108040201A1
:1002E0000102040810204080804020100804020110
:1002F0008004020180402010080402010804020169
:1003000001020408102040800102040810204080EF
:1003100000000A0B02090C0D0E080703040100007F
:1003200000000000000000000000000000000000CD
:10033000000000000000000000000000121110008A
:1003400000000000000000000000000000000000AD
:100350000000000000004A07380C11241FBECFEF38
:10036000D1E2DEBFCDBF00E00CBF23E0ACE3B2E0E2
:1003700001C01D92A73BB207E1F712E0A0E0B2E096
:10038000E0ECF1E200E00BBF02C007900D92AC334D
:10039000B107D9F711E0CCEAD1E000E006C021971F
:1003A0000109802FFE010E94B00ECB3AD10780E0F8
:1003B0000807A9F70E94C2070C94CE100C94000005
:1003C0002091B1033091B2038217930738F4209142
:1003D000AD033091AE032115310529F410920303CA
:1003E00083E093E00895820F931F0895089580910C
:1003F0008D0290918E02891B990B0895089508959E
:10040000AF92BF92CF92DF92EF92FF920F931F9322
:10041000CF93DF936C017B018B01040F151FEB0160
:100420005E01AE18BF08C017D10759F06991D60117
:10043000ED91FC910190F081E02DC6011995892B79
:1004400079F7C501DF91CF911F910F91FF90EF9048
:10045000DF90CF90BF90AF900895FC01538D448DF5
:10046000252F30E0842F90E0821B930B541710F05F
:10047000CF96089501970895FC01918D828D98176C
:1004800061F0A28DAE0FBF2FB11D5D968C91928D44
:100490009F5F9F73928F90E008958FEF9FEF089575
:1004A000FC01918D828D981731F0828DE80FF11D3E
:1004B000858D90E008958FEF9FEF0895FC01918D59
:1004C000228D892F90E0805C9F4F821B91098F7352
:1004D0009927089584E093E00E945E0221E0892B31
:1004E00009F420E0822F0895FC01A48DA80FB92FF4
:1004F000B11DA35ABF4F2C91848D90E001968F734C
:100500009927848FA689B7892C93A089B1898C916A
:10051000837080648C93938D848D981306C00288B9
:10052000F389E02D80818F7D80830895EF92FF9283
:100530000F931F93CF93DF93EC0181E0888F9B8D06
:100540008C8D98131AC0E889F989808185FF15C0C0
:100550009FB7F894EE89FF896083E889F9898081E3
:100560008370806480839FBF81E090E0DF91CF91B2
:100570001F910F91FF90EF900895F62E0B8D10E0D4
:100580000F5F1F4F0F731127E02E8C8D8E110CC043
:100590000FB607FCFACFE889F989808185FFF5CF8E
:1005A000CE010E947402F1CFEB8DEC0FFD2FF11DF7
:1005B000E35AFF4FF0829FB7F8940B8FEA89FB89CB
:1005C00080818062CFCFCF93DF93EC01888D882329
:1005D000B9F0AA89BB89E889F9898C9185FD03C0A6
:1005E000808186FD0DC00FB607FCF7CF8C9185FF8B
:1005F000F2CF808185FFEDCFCE010E947402E9CF5A
:10060000DF91CF91089580E090E0892B29F00E943E
:100610006A0281110E94000080E090E0892B49F07D
:1006200080E090E0892B29F00E94000081110E9457
:10063000000080E090E0892B49F080E090E0892B79
:1006400029F00E94000081110E94000080E090E0EB
:10065000892B49F080E090E0892B29F00E9400006E
:1006600081110C9400000895282F30E0F901E05F1B
:10067000FC4F9491F901E653FD4F44912C573D4FA7
:10068000F9012491222309F435C0992311F19150E5
:100690009231F8F4E92FF0E08827EE5AFC4F8F4FA3
:1006A0000C94B00E8303870364037B037F03690309
:1006B0008A03900394039A039E03A203A803AC0346
:1006C0006903B003B603BA03809180008F778093EB
:1006D0008000E22FF0E0EE0FFF1FE659FD4FA591DD
:1006E000B4918FB7F894EC91611148C040954E23B6
:1006F0004C938FBF0895809180008F7DE8CF8091CB
:100700008000877FE4CF84B58F7784BDE2CF84B546
:100710008F7DFBCF8091B0008F778093B000D9CFD1
:100720008091B0008F7DF9CF809190008F7780937A
:100730009000CFCF809190008F7DF9CF8091900075
:10074000877FF5CF8091A0008F778093A000C1CFE5
:100750008091A0008F7DF9CF8091A000877FF5CF99
:10076000809120018F7780932001B3CF8091200169
:100770008F7DF9CF80912001877FF5CF4E2BB8CFA9
:100780003FB7F8948091850290918602A0918702EC
:10079000B091880226B5A89B05C02F3F19F001969D
:1007A000A11DB11D3FBFBA2FA92F982F8827BC01CB
:1007B000CD01620F711D811D911D42E0660F771FF3
:1007C000881F991F4A95D1F708958F929F92AF92F3
:1007D000BF92CF92DF92EF92FF924B015C010E9499
:1007E000C0036B017C010E94C0036C197D098E0956
:1007F0009F09683E734081059105A8F321E0821AA4
:100800009108A108B10888EEC80E83E0D81EE11C4B
:10081000F11C81149104A104B10429F7FF90EF9019
:10082000DF90CF90BF90AF909F908F9008952091D0
:100830005D02260F3327331F21323105ECF420915E
:10084000D502FC0190E080E0243069F082E0089558
:10085000A0915D022191AC01435C5D4FA40FB52FC7
:10086000B11D2C930196861798F380915D02680F55
:1008700060935D0280E0089581E008951092D502B2
:1008800081E08093D4021092AF0261E084E10E9483
:10089000340361E085E10E943403E9EBF0E08081FC
:1008A0008E7F808380818D7F808388E48093B800F1
:1008B00085E48093BC000895CF93DF9391E09093FB
:1008C0003C028823B9F0C091B800D091BA00809161
:1008D000BC008A7B8093BC0060E084E10E9434030A
:1008E00060E085E10E9434030E943E04D093BA0088
:1008F000C093B800DF91CF9108950895E0918E02E2
:1009000080918D02E81730F4F0E0E157FD4F8081CF
:1009100090E008958FEF9FEF089590918E0280915F
:100920008D022FEF3FEF981748F4E92FF0E0E157E1
:10093000FD4F208130E09F5F90938E02C9010895A2
:10094000CF92DF92EF92FF920F931F93CF93DF939B
:100950007C01CB018A012091FE02222389F0EB0168
:100960006B01C40ED51ECC15DD0569F06991D70168
:10097000ED91FC910190F081E02DC7011995F3CF25
:10098000642F0E941704C801DF91CF911F910F912E
:10099000FF90EF90DF90CF900895CF93DF931F9259
:1009A000CDB7DEB769832091FE022223F9F02091B2
:1009B000FB02203258F021E030E0FC013383228337
:1009C00090E080E00F90DF91CF9108958091FC023C
:1009D000E82FF0E0E552FD4F998190838F5F80937F
:1009E000FC028093FB0281E090E0ECCF61E0CE015D
:1009F00001960E941704F7CF90E080E00895CF930E
:100A0000DF93EC0188819981009711F00E94540FC7
:100A1000198218821D821C821B821A82DF91CF915B
:100A200008950F931F93CF93DF93EC0188819981F1
:100A3000009759F02A813B812617370730F081E073
:100A4000DF91CF911F910F9108958B016F5F7F4FC1
:100A50000E94DD0F009759F0998388831B830A83D6
:100A60002C813D81232B59F7FC011082E8CF80E0D7
:100A7000E7CF85ED8093BC008091D7029091D8029A
:100A8000A091D902B091DA020796A11DB11D23E011
:100A9000B695A795979587952A95D1F72091BC0093
:100AA00024FD03C01092D50208954091D7025091C1
:100AB000D8026091D9027091DA02452B462B472B60
:100AC00069F30097A105B10541F025E32A95F1F7F7
:100AD00000000197A109B109E1CF8091D6020C94E1
:100AE0005C041F920F920FB60F9211240BB60F9257
:100AF0002F933F934F935F936F937F938F939F9326
:100B0000AF93BF93EF93FF9384E093E00E9474024E
:100B1000FF91EF91BF91AF919F918F917F916F91D5
:100B20005F914F913F912F910F900BBE0F900FBE91
:100B30000F901F9018951F920F920FB60F921124CD
:100B40000BB60F922F938F939F93EF93FF93E091A8
:100B50001403F09115038081E0911A03F0911B03B7
:100B600082FD1DC0908180911D038F5F8F73209146
:100B70001E03821741F0E0911D03F0E0EC5FFC4F93
:100B8000958F80931D03FF91EF919F918F912F91EE
:100B90000F900BBE0F900FBE0F901F901895808185
:100BA000F2CF1F920F920FB60F9211242F933F9303
:100BB0008F939F93AF93BF93809181029091820214
:100BC000A0918302B09184023091800223E0230F30
:100BD0002D3758F50196A11DB11D209380028093F9
:100BE000810290938202A0938302B0938402809149
:100BF000850290918602A0918702B09188020196A9
:100C0000A11DB11D8093850290938602A093870257
:100C1000B0938802BF91AF919F918F913F912F9197
:100C20000F900FBE0F901F90189526E8230F029685
:100C3000A11DB11DD2CF1F920F920FB60F9211249A
:100C40000BB60F922F933F934F935F936F937F93C6
:100C50008F939F93AF93BF93EF93FF938091B900CE
:100C6000887F803609F44DC008F040C0883209F40E
:100C7000A9C028F5803109F49DC0C8F4882309F47F
:100C8000FBC0883009F496C0FF91EF91BF91AF91FE
:100C90009F918F917F916F915F914F913F912F9194
:100CA0000F900BBE0F900FBE0F901F9018958831BC
:100CB00009F488C0803241F78093D30214C0803495
:100CC00009F49DC040F48033B9F38833E9F680938A
:100CD000D30285ECB0C0803509F485C0883509F4AD
:100CE00096C0883489F60E943905CECF883909F438
:100CF0008CC038F5883729F050F4883611F08037E9
:100D000019F683E08093D50210927F0257C088388D
:100D100009F47BC0803919F0803809F0B5CF809193
:100D20007F02803208F071C0E0917F0281E08E0F77
:100D300080937F028091BB00F0E0E15AFD4F8083F9
:100D40003DC0803B39F0E0F4803A09F479C0883A3C
:100D500009F09ACF84E08093D50210925E0210923F
:100D60005D02E0918B02F0918C02199580915D02F9
:100D700081110FC081E080935D0210923D0209C095
:100D8000803C09F4A6CF883C09F4A3CF883B09F046
:100D90007BCFE0915E0281E08E0F80935E02F0E0F7
:100DA000E35CFD4F80818093BB0090915E02809157
:100DB0005D0229C08091B0028093BB0085EC8093D6
:100DC000BC0062CF9091D2028091D102981758F561
:100DD000E091D20281E08E0F8093D202F0E0EF54D6
:100DE000FD4F8081E9CFE091D20281E08E0F8093A8
:100DF000D2028091BB00F0E0EF54FD4F80839091D0
:100E0000D2028091D1029817C8F285E8D8CFE0913C
:100E1000D20281E08E0F8093D2028091BB00F0E07D
:100E2000EF54FD4F80838091D40281115CCF81E02B
:100E30008093AF0284EA8093BC001092D50224CF45
:100E400085EC8093BC001092D50280917F028032A5
:100E500030F4E0917F02F0E0E15AFD4F10826091A2
:100E60007F0270E0E0918902F0918A028FE592E0C2
:100E7000199510927F0208CF1092D30234CF1F929F
:100E80000F920FB60F9211245A980F900FBE0F9029
:100E90001F901895109207031092060388EE93E0B6
:100EA000A0E0B0E08093080390930903A0930A03A5
:100EB000B0930B032BE132E030930503209304033E
:100EC00025EC30E0309311032093100324EC30E044
:100ED000309313032093120320EC30E0309315037A
:100EE0002093140321EC30E0309317032093160372
:100EF00022EC30E0309319032093180326EC30E005
:100F000030931B0320931A0310921D0310921E03AB
:100F100010921F03109220031092A4031092A303B7
:100F20008093A5039093A603A093A703B093A8036F
:100F30008DE292E09093A2038093A1031092AE03FE
:100F40001092AD031092B0031092AF031092B2034F
:100F50001092B10370E060E08DEA93E00E94110509
:100F6000811104C08DEA93E00C94FF041092B20347
:100F70001092B1036BE372E08091AD039091AE03E8
:100F80000C94C710CF93DF93CDB7DEB7A9970FB6F8
:100F9000F894DEBF0FBECDBF789484B5826084BD67
:100FA00084B5816084BD85B5826085BD85B581606D
:100FB00085BD80916E00816080936E0010928100EB
:100FC00080918100826080938100809181008160A6
:100FD0008093810080918000816080938000809167
:100FE000B10084608093B1008091B00081608093F3
:100FF000B000809191008260809391008091910077
:101000008160809391008091900081608093900036
:101010008091A10082608093A1008091A1008160F5
:101020008093A1008091A00081608093A0008091B6
:101030002101826080932101809121018160809350
:1010400021018091200181608093200180917A00AC
:10105000846080937A0080917A00826080937A0025
:1010600080917A00816080937A0080917A00806814
:1010700080937A001092C10010928E0210928D021D
:101080001092FC021092FB020E943E048EEF91E04F
:1010900090938C0280938B028FEF91E090938A0261
:1010A0008093890268EE73E080E090E00E94E5039F
:1010B00087E08AB988EF8BB9E0911403F0911503AA
:1010C00082E08083E0911003F09111031082E0919F
:1010D0001203F09113038FEC808310921C03E091B4
:1010E0001803F091190386E08083E0911603F091D4
:1010F0001703808180618083E0911603F0911703CC
:10110000808188608083E0911603F09117038081CD
:1011100080688083E0911603F091170380818F7DB2
:1011200080838091C10084648093C1008091C0005D
:1011300081608093C00061E070E080E090E00E94F8
:10114000E5038EED80930203DD24D39422242394BF
:10115000312C84E093E00E945E02892BA9F084E0A8
:1011600093E00E943C0290910002992381F09091BB
:101170000203981309C010920002D09201038091DB
:10118000C0008E7F8093C0000E940303E2CF809155
:1011900001038823C9F3109201038091FF0290910B
:1011A0000003039721F4109200031092FF02D092E3
:1011B00000025A9A61E070E080E090E00E94E5034E
:1011C000E091FF02F0910003EE0FFF1FEE0FFF1FF3
:1011D000E95FFD4F60817181828193814DB65EB67A
:1011E0001BA21AA21DA21CA21FA21EA28E010F5F8B
:1011F0001F4F22E044E00E94410C7C01009779F0EF
:10120000FC0101900020E9F731978F01081B190BB1
:10121000B801CE0182960E9411058111C4C0CE0191
:1012200082960E94FF048091AD039091AE030097D7
:1012300009F4C3C06AA17BA16115710509F4BBC0A3
:101240004091AF035091B0032EA13FA14217530725
:1012500008F4B1C00E94C7108EA19FA19093B20361
:101260008093B1031FA21EA28AA19BA1009711F037
:101270000E94540F8091B1039091B2039C012F5FA3
:101280003F4F02964DB75EB7481B590B0FB6F89407
:101290005EBF0FBE4DBF6DB77EB76F5F7F4F5B0107
:1012A000FB0137FFA1C08501F2E0CF2EA3E09A2E0B
:1012B000B4E08B2E85E0782E96E0692E8091B10304
:1012C0009091B2037801EA18FB08E816F90608F0D5
:1012D0008FC0C7010E94E001DC018C91803311F4C2
:1012E000F8011082C7010E94E001DC018C9181337A
:1012F00011F4F801D082C7010E94E001DC018C9159
:10130000823311F4F801C082C7010E94E001DC01C0
:101310008C91833311F4F8019082C7010E94E0019F
:10132000DC018C91843311F4F8018082C7010E94A2
:10133000E001DC018C91853311F4F8017082C70162
:101340000E94E001DC018C91863311F4F801608287
:10135000C7010E94E001DC018C91873319F427E07A
:10136000F8012083C7010E94E001DC018C918833E1
:1013700019F428E0F8012083C7010E94E001DC0194
:101380008C91893319F429E0F8012083C7010E9468
:10139000E001DC018C918E3219F42FEFF8012083EB
:1013A0000F5F1F4F8BCF1FA30EA3B7018AA19BA175
:1013B0000E94C71038CF0E94540F8AA19BA190931E
:1013C000AE038093AD038CA19DA19093B003809355
:1013D000AF038EA19FA19093B2038093B1031BA290
:1013E0001AA21DA21CA23ECF11922150310959CF41
:1013F0004DB75EB7481B590B0FB6F8945EBF0FBED2
:101400004DBF2DB73EB72F5F3F4F39A728A73901F2
:10141000680E791E7501D901A615B70529F1F701E6
:1014200081907F0170E060E050E040E0912C840109
:10143000042E02C0159507950A94E2F700FF0DC02F
:1014400007E010E0041B150BF10102C0EE0FFF1FB7
:101450000A95E2F78F016E2B712B4F5F5F4F48307B
:10146000510529F76D93D8CFD50115961C92159784
:1014700016961C922B5F3F4F50E040E0E8A5F9A57F
:101480006191F9A7E8A7562768E070E0DA01440FF8
:10149000551FB7FF04C0F9E84F27F5E05F276150FB
:1014A0007109A1F768A579A52617370739F770E004
:1014B00060E030E020E0F101022E02C0EE0FFF1FDD
:1014C0000A94E2F7E423F523EF2B69F0EFE0F0E074
:1014D000E21BF30BD10102C0AA0FBB1FEA95E2F792
:1014E000FD016A2B7F2B2F5F3F4F2031310519F70C
:1014F000F501E80FF91F7083618385018091B103C5
:101500009091B203029698012A193B0928173907CE
:1015100040F4F80161918F0184E093E00E9496020B
:10152000EDCF0FB6F8945EBE0FBE4DBE8091FF02A8
:10153000909100030196909300038093FF02D09254
:10154000FE0280E48093FD021092FC021092FB02E6
:1015500065EF81EA93E00E94CD041091FB02113205
:1015600008F090C00E94C0034B015C018091D5023D
:10157000811163C082E08093D502D092D4028FEFB4
:101580008093D3021092D2021093D102ABEDB2E05D
:10159000E1EBF2E080E01813E7C01092B002809116
:1015A000B00280688093B0028091AF02813009F070
:1015B000DFC01092AF020E94C0034B015C0180911A
:1015C000B0028093BB008091D7029091D802A09185
:1015D000D902B091DA02892B8A2B8B2B99F00E94C9
:1015E000C0030091D7021091D8022091D902309106
:1015F000DA02681979098A099B090617170728076B
:101600003907E0F18091BC0083FDD9CF85EC809350
:10161000BC000E94C0034B015C018091D502823066
:1016200009F4A8C08091D3028F3F61F18091D30269
:10163000803241F18091D30225C08091D7029091F0
:10164000D802A091D902B091DA02892B8A2B8B2B78
:1016500009F48CCF0E94C0034090D7025090D8026A
:101660006090D9027090DA02681979098A099B0999
:10167000461657066806790608F078CF8091D6029C
:101680000E945C041092FC021092FB021092FE0277
:101690000E94C0034B015C018091D50281118CC076
:1016A000D092D502D092D4028FEF8093D3021092C1
:1016B000D202D092D102D092B0028091B002806862
:1016C0008093B0028091AF02813009F0ABC01092DC
:1016D000AF020E94C0034B015C018091B002809375
:1016E000BB008091D7029091D802A091D902B0910D
:1016F000DA02892B8A2B8B2BA1F00E94C003009168
:10170000D7021091D8022091D9023091DA026819DB
:1017100079098A099B09061717072807390708F46A
:101720006CC08091BC0083FDD8CF85EC8093BC0059
:101730000E94C0034B015C018091D502813009F405
:1017400073C08091D202823008F090C08091D202A2
:10175000A1EBB2E0EFE8F2E090E0981709F452C094
:101760002D9121939F5FF9CF9D9191938F5F13CF1F
:1017700085EE4DCF8091D7029091D802A091D902E9
:10178000B091DA02892B8A2B8B2B09F446CF0E9469
:10179000C0030091D7021091D8022091D902309154
:1017A000DA02681979098A099B09061717072807B9
:1017B000390708F032CF62CF8091D7029091D802DA
:1017C000A091D902B091DA02892B8A2B8B2B09F4D4
:1017D00063CF0E94C0030091D7021091D8022091DC
:1017E000D9023091DA02681979098A099B0906172A
:1017F00017072807390708F04FCF8091D6020E94BB
:101800005C0480E010928E0280938D02823009F099
:10181000BBCC81EA93E00E948D0481EA93E00E94B0
:101820008D04B2CC85EE82CF8091D7029091D80200
:10183000A091D902B091DA02892B8A2B8B2B09F463
:101840007BCF0E94C0030091D7021091D802209153
:10185000D9023091DA02681979098A099B090617B9
:1018600017072807390708F067CFC7CF82E070CF86
:101870008091AD039091AE03009711F00C94540F3A
:101880000895EF920F931F93CF93DF93E80134E015
:1018900047FD34E1042E000C550B57FF03C0519552
:1018A00041955109E32E022F242FAE010E945F0CB7
:1018B000CE01DF91CF911F910F91EF9008958F92FC
:1018C0009F92AF92BF92CF92DF92EF92FF920F93CF
:1018D0001F93CF93DF9300D000D000D0CDB7DEB7F9
:1018E0006A01F22EB02E102FFBE3AF2EA01608F4E3
:1018F0001BE31F5F012F27E0AE014F5F5F4F0E9488
:10190000D80DBC018981982F9970913009F44EC08F
:101910009BE2E1FC04C09E2D9170E0FC49C05E2D6D
:101920005071E82FE87083FF55C084E0911101C029
:1019300083E0EF2DE81B8F1508F0E0E0D6018E2F35
:1019400020E25523C9F1992329F0D6019C93C601C1
:1019500001966C0196012D5F3F4FE2FE33C08EE48D
:10196000D6018C9391E411969C93119712968C93C7
:10197000D9018E2F90E281112AC0E20FF32FF11DC1
:1019800010828EEF9FEF29960FB6F894DEBF0FBE40
:10199000CDBFDF91CF911F910F91FF90EF90DF901E
:1019A000CF90BF90AF909F908F9008959DE2B7CF5A
:1019B00090E2B5CF2D9381508111FCCFCE0ED11C7A
:1019C000E0E0C1CF8EE6D6018C9391E6CCCF9D931B
:1019D0008150D1CF482F447082FF3DC084E09111E7
:1019E00001C083E08F1510F4EF2DE81BD6018E2F78
:1019F00020E2552309F1992329F0D6019C93C601D1
:101A000001966C0196012D5F3F4FE2FE1BC089E4F9
:101A1000D6018C938EE411968C93119786E41296DE
:101A20008C93D9018E2F90E2882309F4A6CF9D9341
:101A30008150FACF2D9381508111FCCFCE0ED11C55
:101A4000E0E0D9CF89E6D6018C938EE611968C938F
:101A5000119786E6E4CF9B0177FF02C030E020E0DB
:101A6000A1E0B0E0911102C0B0E0A0E0F901319630
:101A7000AE0FBF1F8B2C912CBB2009F461C0540109
:101A8000EFEFAE1ABE0AAA0DBB1DFA161B0619F01F
:101A900014F04F2D4A1B511188C0E3FC59C0760148
:101AA000A42FB0E2A1114FC0C40ED11C992309F498
:101AB0005BC040E0D6011196F60190836D0155237D
:101AC00009F448C0012F060F9A81582F507184FFE6
:101AD00003C0913309F4015010160CF047C00930CF
:101AE00008F008E0EEE2FE2E5B01A01AB1088501C5
:101AF0009194819491082F3F320729F4D601FC92EA
:101B0000F60131966F016217730794F102171307FC
:101B10007CF5DB01A21BB30BAA24A394B12CAC0E61
:101B2000BD1EAA0DBB1D11968C9121503109D60105
:101B3000119628153905F4F0F60180836D01DBCF8D
:101B4000B12CA12CA0CFF701B1937F01A150AACF56
:101B50009111B0CFD601942F50E302C05D93915004
:101B60009111FCCFC40ED11C40E0ACCF01E0BACF44
:101B700080E3DBCF6217730731F4963388F4953333
:101B800011F4552369F0F6018083FD01842F90E262
:101B9000811108C0A40FB11D1C9290E080E0F3CE2B
:101BA00081E3F1CF91938150F3CF911183CF8ACF0D
:101BB000283008F027E03327DA01990F311D87FD1F
:101BC000916000966105710539F432602E5F3D9396
:101BD00030E32A95E1F708959F3F30F08038710592
:101BE000610509F03C5F3C5F3D93913008F08068EF
:101BF000911DDF93CF931F930F93FF92EF92192FB5
:101C0000987F9695E92F96959695E90FFF27E653CD
:101C1000FE4F99273327EE24FF24A701E701059003
:101C20000894079428F4360FE71EF81E491F511D2B
:101C3000660F771F881F991F0694A1F705900794D8
:101C400028F4E70EF81E491F561FC11D770F881F85
:101C5000991F661F0694A1F70590079428F4F80EC3
:101C6000491F561FC71FD11D880F991F661F771F59
:101C70000694A1F70590079420F4490F561FC71F3B
:101C8000D81F990F661F771F881F0694A9F78491A4
:101C90001095177041F0D695C79557954795F794CD
:101CA000E7941A95C1F7E0E7F1E068941590159173
:101CB00035916591959105907FE27395E118F10A50
:101CC000430B560BC90BD009C0F7E10CF11E431FA3
:101CD000561FC91FD01D7EF4703311F48A95E6CFCC
:101CE000E894015030F0080F0AF40027021708F4B6
:101CF000202F2395022F7A3328F079E37D932A95BC
:101D0000E9F710C07D932A9589F606949795679513
:101D1000379517951794E118F10A430B560BC90B29
:101D2000D00998F023957E9173957A3308F070E38B
:101D30007C932013B8F77E9170617D9330F083958A
:101D400071E37D9370E32A95E1F71124EF90FF9002
:101D50000F911F91CF91DF91992787FD909508955D
:101D6000EE0FFF1F881F8BBF0790F691E02D19948F
:101D70000F931F93CF93DF938230910510F482E08D
:101D800090E0E091B503F091B60330E020E0B0E0E0
:101D9000A0E0309799F42115310509F44AC0281BB9
:101DA000390B24303105D8F58A819B816115710585
:101DB00089F1FB0193838283FE0111C0408151812F
:101DC0000281138148175907E0F04817590799F421
:101DD000109761F012960C93129713961C933296FB
:101DE000CF01DF91CF911F910F9108950093B5031B
:101DF0001093B603F4CF2115310551F04217530764
:101E000038F0A901DB019A01BD01DF01F801C1CF62
:101E1000EF01F9CF9093B6038093B503CDCFFE01C8
:101E2000E20FF31F81939193225031093983288364
:101E3000D7CF2091B3033091B403232B41F42091E9
:101E40000302309104023093B4032093B303209132
:101E50000102309102022115310541F42DB73EB740
:101E60004091050250910602241B350BE091B3030B
:101E7000F091B403E217F307A0F42E1B3F0B2817D1
:101E8000390778F0AC014E5F5F4F2417350748F0F3
:101E90004E0F5F1F5093B4034093B303819391930C
:101EA0009FCFF0E0E0E09CCFCF93DF930097E9F085
:101EB000FC01329713821282A091B503B091B60350
:101EC000ED0130E020E01097A1F420813181820FF4
:101ED000931F2091B3033091B4032817390709F0F9
:101EE00061C0F093B403E093B303DF91CF91089501
:101EF000EA01CE17DF07E8F54A815B819E014115B3
:101F00005105B1F7E901FB83EA8349915991C40F67
:101F1000D51FEC17FD0761F4808191810296840F33
:101F2000951FE90199838883828193819B838A83AA
:101F3000F0E0E0E012968D919C9113970097B9F52F
:101F40002D913C911197CD010296820F931F209104
:101F5000B3033091B4032817390739F6309751F598
:101F60001092B6031092B503B093B403A093B303D9
:101F7000BCCFD383C28340815181840F951FC81782
:101F8000D90761F44E5F5F4F88819981480F591FCF
:101F9000518340838A819B819383828321153105FC
:101FA00009F0B0CFF093B603E093B5039ECFFD01E7
:101FB000DC01C0CF13821282D7CF4F925F926F9213
:101FC0007F928F929F92AF92BF92CF92DF92EF92C9
:101FD000FF920F931F93CF93DF938C01009799F497
:101FE000CB01DF91CF911F910F91FF90EF90DF9088
:101FF000CF90BF90AF909F908F907F906F905F90A9
:102000004F900C94B80EFC01E60FF71F9C01225074
:102010003109E217F30708F4AEC0D901CD91DC9184
:102020001197C617D70720F1C530D10578F0CE013A
:1020300004978617970750F0C61BD70B2297C193BA
:10204000D1936D937C93CF010E94540FC801DF910F
:10205000CF911F910F91FF90EF90DF90CF90BF90A5
:10206000AF909F908F907F906F905F904F9008956A
:102070005B01AC1ABD0A4C018C0E9D1EA091B503EC
:10208000B091B603512C412CF12CE12C109731F575
:102090008091B3039091B4038815990509F05CC051
:1020A0004616570608F058C080910102909102022E
:1020B000009741F48DB79EB74091050250910602FA
:1020C000841B950BE817F90708F055C0F093B4038B
:1020D000E093B303F90171836083B8CF8D919C9134
:1020E000119712966C90129713967C901397A815DF
:1020F000B90559F56C0142E0C40ED11CCA14DB04C9
:1021000020F1AC014A195B09DA011296159780F0AB
:102110006282738251834083D9016D937C93E11471
:10212000F10471F0D7011396FC93EE9312978ECFC2
:1021300022968C0F9D1FF90191838083F301EFCFCD
:10214000F093B603E093B50381CF4816590608F41F
:102150002C017D01D3019ACFCB010E94B80E7C01E6
:10216000009749F0AE01B8010E94BE10C8010E945C
:10217000540F87016BCF10E000E068CFFB01DC015A
:1021800002C001900D9241505040D8F70895FB01D4
:10219000DC0101900D920020E1F7089511E0CCEAF6
:1021A000D1E000E006C0802FFE010E94B00E219613
:1021B000011DCD3AD10780E00807A9F7F894FFCFB9
:1021C000010000B7038000000048420000504200B8
:1021D0000040420000484200000000960200022D2C
:1021E00002E3025E023C02500200000000CD04A0A7
:0C21F00004FC047D04F7018D047E040053
:00000001FF
